{
  "abi": [
    {
      "anonymous": false,
      "inputs": [
        {
          "indexed": false,
          "internalType": "uint256",
          "name": "balance",
          "type": "uint256"
        },
        {
          "indexed": false,
          "internalType": "address",
          "name": "sender",
          "type": "address"
        }
      ],
      "name": "bal",
      "type": "event"
    },
    {
      "anonymous": false,
      "inputs": [
        {
          "indexed": false,
          "internalType": "uint256",
          "name": "number",
          "type": "uint256"
        },
        {
          "indexed": false,
          "internalType": "address",
          "name": "sender",
          "type": "address"
        }
      ],
      "name": "tran",
      "type": "event"
    },
    {
      "inputs": [
        {
          "internalType": "address",
          "name": "_owner",
          "type": "address"
        }
      ],
      "name": "checkBalance",
      "outputs": [],
      "stateMutability": "nonpayable",
      "type": "function"
    },
    {
      "inputs": [],
      "name": "checkMyBalance",
      "outputs": [],
      "stateMutability": "nonpayable",
      "type": "function"
    },
    {
      "inputs": [
        {
          "internalType": "uint256",
          "name": "amount",
          "type": "uint256"
        }
      ],
      "name": "deposit",
      "outputs": [],
      "stateMutability": "nonpayable",
      "type": "function"
    },
    {
      "inputs": [
        {
          "internalType": "address",
          "name": "",
          "type": "address"
        }
      ],
      "name": "userBalance",
      "outputs": [
        {
          "internalType": "uint256",
          "name": "",
          "type": "uint256"
        }
      ],
      "stateMutability": "view",
      "type": "function"
    }
  ],
  "bytecode": {
    "object": "0x608060405234801561001057600080fd5b50610257806100206000396000f3fe608060405234801561001057600080fd5b506004361061004c5760003560e01c80630103c92b146100515780635f51522614610083578063b37d61f814610098578063b6b55f25146100a0575b600080fd5b61007161005f3660046101b1565b60006020819052908152604090205481565b60405190815260200160405180910390f35b6100966100913660046101b1565b6100b3565b005b61009661010b565b6100966100ae3660046101e1565b610158565b6001600160a01b038116600090815260208181526040918290205482518181523392810192909252917f308f307af8c5a0aafe6ba334cf7dc318c731abb6691ed71a333489971c3982a2910160405180910390a15050565b3360008181526020818152604091829020548251818152918201939093527f308f307af8c5a0aafe6ba334cf7dc318c731abb6691ed71a333489971c3982a291015b60405180910390a150565b33600090815260208190526040812080548392906101779084906101fa565b9091555050604080518281523360208201527f088ed1949779915571b18bd185e74dd28272380096dc70aef6b4b972dae81ed9910161014d565b6000602082840312156101c357600080fd5b81356001600160a01b03811681146101da57600080fd5b9392505050565b6000602082840312156101f357600080fd5b5035919050565b8082018082111561021b57634e487b7160e01b600052601160045260246000fd5b9291505056fea2646970667358221220d28acd8cb979d7ed8c318922ec03cd568f153dfea79b1c06bfe9b3d82281299f64736f6c63430008150033",
    "linkReferences": {}
  },
  "methodIdentifiers": {
    "checkBalance(address)": "5f515226",
    "checkMyBalance()": "b37d61f8",
    "deposit(uint256)": "b6b55f25",
    "userBalance(address)": "0103c92b"
  },
  "id": 21
}